:100000000C9462000C948A000C948A000C948A0070
:100010000C948A000C948A000C948A000C948A0038
:100020000C948A000C948A000C948A000C948A0028
:100030000C948A000C948A000C948A000C948A0018
:100040000C947A060C948A000C94EA060C94C4066C
:100050000C948A000C948A000C948A000C948A00F8
:100060000C941C070C948A00000000002400270058
:100070002A0000000000250028002B0000000000DE
:1000800023002600290004040404040404040202DA
:100090000202020203030303030301020408102007
:1000A0004080010204081020010204081020000012
:1000B0000008000201000003040700000000000027
:1000C00000004A0811241FBECFEFD8E0DEBFCDBF2D
:1000D00022E0AAE4B1E001C01D92AD3BB207E1F716
:1000E00011E0A0E0B1E0E4E1FCE102C005900D9276
:1000F000AA34B107D9F710E0C2E6D0E004C02197D6
:10010000FE010E94020EC136D107C9F70E94AD0858
:100110000C94080E0C94000008950895833081F02B
:1001200028F4813099F08230A9F008958730A9F041
:100130008830C9F08430B1F4809180008F7D03C095
:10014000809180008F7780938000089584B58F77A9
:1001500084BD089584B58F7DFBCF8091B0008F77EB
:100160008093B00008958091B0008F7DF9CFCF9338
:10017000DF93282F30E0F901E255FF4F8491F90118
:10018000E656FF4FD491F901EA57FF4FC491CC23B3
:10019000A1F081110E948E00EC2FF0E0EE0FFF1F06
:1001A000E458FF4FA591B491EC91ED2381E090E0EC
:1001B00009F480E0DF91CF91089580E090E0FACFDC
:1001C0001F93CF93DF93282F30E0F901E255FF4FC3
:1001D0008491F901E656FF4FD491F901EA57FF4F98
:1001E000C491CC23A9F0162F81110E948E00EC2F10
:1001F000F0E0EE0FFF1FEE58FF4FA591B4918FB7BF
:10020000F894EC91111108C0D095DE23DC938FBFD8
:10021000DF91CF911F910895DE2BF8CFCF93DF931D
:1002200090E0FC01E656FF4F24918A579F4FFC0156
:1002300084918823D1F090E0880F991FFC01E85940
:10024000FF4FA591B491FC01EE58FF4FC591D49199
:1002500061110EC09FB7F8948C91E22FE0958E2328
:100260008C932881E223E8839FBFDF91CF9108958B
:100270008FB7F894EC91E22BEC938FBFF6CF3FB79A
:10028000F8948091010290910202A0910302B09132
:10029000040226B5A89B05C02F3F19F00196A11DA9
:1002A000B11D3FBFBA2FA92F982F8827BC01CD01C0
:1002B000620F711D811D911D42E0660F771F881F1F
:1002C000991F4A95D1F708958F929F92AF92BF924E
:1002D000CF92DF92EF92FF924B015C010E943F01AF
:1002E0006B017C010E943F016C197D098E099F09F9
:1002F000683E734081059105A8F321E0821A9108B8
:10030000A108B10888EEC80E83E0D81EE11CF11CDC
:1003100081149104A104B10429F7FF90EF90DF90BC
:10032000CF90BF90AF909F908F9008958091A8023A
:100330009091A902891B990B0895AF92BF92CF9219
:10034000DF92EF92FF920F931F93CF93DF936C0195
:100350007B018B01040F151FEB015E01AE18BF0876
:10036000C017D10759F06991D601ED91FC91019028
:10037000F081E02DC6010995892B79F7C501DF9140
:10038000CF911F910F91FF90EF90DF90CF90BF9092
:10039000AF900895FC01538D448D252F30E0842FBC
:1003A00090E0821B930B541710F0CF96089501979D
:1003B0000895FC01918D828D981761F0A28DAE0F8A
:1003C000BF2FB11D5D968C91928D9F5F9F73928F11
:1003D00090E008958FEF9FEF0895FC01918D828D3D
:1003E000981731F0828DE80FF11D858D90E008950A
:1003F0008FEF9FEF0895FC01918D228D892F90E062
:10040000805C9F4F821B91098F739927089585E027
:1004100092E00E94FB0121E0892B09F420E0822F69
:10042000089580E090E0892B29F00E940702811155
:100430000C9400000895FC01A48DA80FB92FB11DE4
:10044000A35ABF4F2C91848D90E001968F7399270A
:10045000848FA689B7892C93A089B1898C918370E8
:1004600080648C93938D848D981306C00288F389E1
:10047000E02D80818F7D80830895EF92FF920F930E
:100480001F93CF93DF93EC0181E0888F9B8D8C8D40
:1004900098131AC0E889F989808185FF15C09FB734
:1004A000F894EE89FF896083E889F98980818370F7
:1004B000806480839FBF81E090E0DF91CF911F91A6
:1004C0000F91FF90EF900895F62E0B8D10E00F5FC7
:1004D0001F4F0F731127E02E8C8D8E110CC00FB69D
:1004E00007FCFACFE889F989808185FFF5CFCE0135
:1004F0000E941B02F1CFEB8DEC0FFD2FF11DE35A93
:10050000FF4FF0829FB7F8940B8FEA89FB898081B7
:100510008062CFCFCF93DF93EC01888D8823B9F031
:10052000AA89BB89E889F9898C9185FD03C08081FE
:1005300086FD0DC00FB607FCF7CF8C9185FFF2CF7B
:10054000808185FFEDCFCE010E941B02E9CFDF91B4
:10055000CF910895CF93DF93EC0161E088810E94F1
:100560000E0160E088810E94E00062E170E080E0BE
:1005700090E00E94640161E088810E94E0008BE9C4
:1005800090E00197F1F760E08881DF91CF910C94C2
:100590000E01CF92DF92EF92FF921F93CF93DF93E2
:1005A0007C01C7E0D0E010E083E7C82ED12CF70132
:1005B00080810E94B700892BD1F3C6010197F1F722
:1005C000F70180810E94B7008130910531F40C2E33
:1005D00001C0880F0A94EAF7182BF70180810E9466
:1005E000B7000197D1F3219710F7812FDF91CF91B9
:1005F0001F91FF90EF90DF90CF9008958F929F9280
:10060000AF92BF92CF92DF92EF92FF920F931F9320
:10061000CF93DF9300D000D01F92CDB7DEB77C011F
:1006200066E970E080E090E00E9464018E010F5F57
:100630001F4F85E0F80111928A95E9F7C7010E94E2
:10064000AA028FB7F8948090FD019090FE01A090CF
:10065000FF01B09000028FBFF70180810E94B700B8
:10066000019741F52FB7F8948091FD019091FE011B
:10067000A091FF01B09100022FBF88199909AA0922
:10068000BB098D329140A105B10530F38DEF90E0AB
:100690000F900F900F900F900F90DF91CF911F91BF
:1006A0000F91FF90EF90DF90CF90BF90AF909F9011
:1006B0008F900895F70180810E94B700892B91F5F2
:1006C0008BE3C82EDD24D394C6010197F1F7F7011F
:1006D00080810E94B700019729F5C6010197F1F7C3
:1006E0006E01F6E0CF0ED11CC7010E94C902F801CD
:1006F00081938F018D3F51F2CE16DF06A9F78981D4
:1007000090E06D814A81480F592F511D2B81420F76
:10071000511D2C81240F352F311D332762171306ED
:1007200009F4B6CF8EEF90E0B3CF8F929F92AF9245
:10073000BF92CF92DF92EF92FF920F931F93CF93CE
:10074000DF9300D000D01F92CDB7DEB77C0166E901
:1007500070E080E090E00E9464018E010F5F1F4F07
:1007600085E0F80111928A95E9F7C7010E94AA0273
:100770008FB7F8948090FD019090FE01A090FF014A
:10078000B09000028FBFF70180810E94B7000197EF
:1007900041F52FB7F8948091FD019091FE01A09151
:1007A000FF01B09100022FBF88199909AA09BB095E
:1007B0008D329140A105B10530F38DEF90E00F909F
:1007C0000F900F900F900F90DF91CF911F910F918D
:1007D000FF90EF90DF90CF90BF90AF909F908F9061
:1007E0000895F70180810E94B700892B99F58BE36A
:1007F000C82EDD24D394C6010197F1F7F70180815B
:100800000E94B700019731F5C6010197F1F76E011B
:10081000F6E0CF0ED11CC7010E94C902F8018193F6
:100820008F018D3F51F2CE16DF06A9F78B8190E044
:100830006D8129813A81230F3327331FA901480F86
:10084000591F2C81240F352F311D332762171306B2
:1008500009F4B5CF8EEF90E0B2CF20916B01260F57
:100860003327331F21323105ECF42091D401FC01F0
:1008700090E080E0243069F082E00895A0916B015F
:100880002191AC01455B5E4FA40FB52FB11D2C9398
:100890000196861798F380916B01680F60936B0146
:1008A00080E0089581E008951092D40181E0809362
:1008B000D3011092AE0161E082E10E94E00061E0AC
:1008C00083E10E94E000E9EBF0E080818E7F80838D
:1008D00080818D7F808388E48093B80085E4809355
:1008E000BC000895CF93DF9391E090934A01882351
:1008F000B9F0C091B800D091BA008091BC008A7B59
:100900008093BC0060E082E10E94E00060E083E14F
:100910000E94E0000E945404D093BA00C093B80033
:10092000DF91CF9108950895E091A9028091A802E6
:10093000E81730F4F0E0E257FE4F808190E0089530
:100940008FEF9FEF08959091A9028091A8022FEF59
:100950003FEF981748F4E92FF0E0E257FE4F20816F
:1009600030E09F5F9093A902C9010895CF92DF9272
:10097000EF92FF920F931F93CF93DF937C01CB01F4
:100980008A012091FB01222389F0EB016B01C40E47
:10099000D51ECC15DD0569F06991D701ED91FC916B
:1009A0000190F081E02DC7010995F3CF642F0E94DB
:1009B0002D04C801DF91CF911F910F91FF90EF900F
:1009C000DF90CF900895CF93DF931F92CDB7DEB71E
:1009D00069832091FB012223F9F02091A6022032A5
:1009E00058F021E030E0FC013383228390E080E086
:1009F0000F90DF91CF9108958091A702E82FF0E04A
:100A0000E652FE4F998190838F5F8093A702809377
:100A1000A60281E090E0ECCF61E0CE0101960E9459
:100A20002D04F7CF90E080E00895FC0101900020B4
:100A3000E9F73197AF01481B590BBC0185E092E003
:100A40000C949D018F929F92AF92BF920F931F9330
:100A5000CF93DF93CDB7DEB7A1970FB6F894DEBF83
:100A60000FBECDBF19A2423008F44AE08E010F5DDF
:100A70001F4F842E912CB12CA12CA50194010E9412
:100A8000E00DE62FB901CA01EA30F4F4E05DD801C7
:100A9000EE938D01232B242B252B79F790E080E01A
:100AA000109719F0CD010E941505A1960FB6F89484
:100AB000DEBF0FBECDBFDF91CF911F910F91BF90D1
:100AC000AF909F908F900895E95CE1CF4F925F9235
:100AD0006F927F928F929F92AF92BF92CF92DF924E
:100AE000EF92FF920F931F93CF936B017C01742EB3
:100AF000AC019B010E94DB0D882399F084E291E018
:100B0000CF911F910F91FF90EF90DF90CF90BF900A
:100B1000AF909F908F907F906F905F904F900C94CC
:100B2000150546015701E894B7F82FEF3FEF4FE75F
:100B30005FE7C501B4010E94DB0D81110DC02FEFED
:100B40003FEF4FE75FE7C501B4010E94A40B181601
:100B50001CF488E291E0D4CF2FEF3FEF4FE75FE442
:100B6000C701B6010E94D60D18161CF48CE291E064
:100B7000C7CF2FEF3FEF4FE75FECC701B6010E94F1
:100B8000A40B87FDF3CF20E030E0A901C701B60137
:100B90000E94A40B10E000E087FF0AC06DE285E030
:100BA00092E00E943D028C01F7FAF094F7F8F0947D
:100BB000C0E060E070E080E09FE37C1641F020E060
:100BC00030E040E251E40E94350DCF5FF6CFA7013F
:100BD00096010E94C90C2B013C010E94A70D4B01FC
:100BE0005C014AE00E9422057C01E00EF11ECC234C
:100BF000C1F1C501B4010E94A90B9B01AC01C30165
:100C0000B2010E94C80C4B015C016EE285E092E0EB
:100C10000E943D02E80EF91EC15018F120E030E0BC
:100C200040E251E4C501B4010E940A0C2B013C01D1
:100C30000E94A70D4B01B12CA12C4AE0C501B401C3
:100C40000E942205E80EF91EC501B4010E94A90BFD
:100C50009B01AC01C301B2010E94C80C4B015C01B5
:100C6000DBCFC701CF911F910F91FF90EF90DF90E5
:100C7000CF90BF90AF909F908F907F906F905F903C
:100C80004F90089585ED8093BC008091D60190919E
:100C9000D701A091D801B091D9010796A11DB11D2E
:100CA00023E0B695A795979587952A95D1F720913A
:100CB000BC0024FD03C01092D40108954091D601D8
:100CC0005091D7016091D8017091D901452B462BE5
:100CD000472B69F30097A105B10541F02AE22A9557
:100CE000F1F700C00197A109B109E1CF8091D501C9
:100CF0000C9472041F920F920FB60F9211242F932F
:100D00003F938F939F93AF93BF938091FD019091F9
:100D1000FE01A091FF01B09100023091FC0123E09F
:100D2000230F2D3758F50196A11DB11D2093FC010D
:100D30008093FD019093FE01A093FF01B093000208
:100D40008091010290910202A0910302B0910402ED
:100D50000196A11DB11D8093010290930202A09300
:100D60000302B0930402BF91AF919F918F913F9185
:100D70002F910F900FBE0F901F90189526E8230F0C
:100D80000296A11DB11DD2CF1F920F920FB60F92E6
:100D900011242F933F934F935F936F937F938F9380
:100DA0009F93AF93BF93EF93FF9385E092E00E94F0
:100DB0001B02FF91EF91BF91AF919F918F917F9116
:100DC0006F915F914F913F912F910F900FBE0F90B8
:100DD0001F9018951F920F920FB60F9211242F9308
:100DE0008F939F93EF93FF93E0911502F09116027A
:100DF0008081E0911B02F0911C0282FD1BC090815A
:100E000080911E028F5F8F7320911F02821741F025
:100E1000E0911E02F0E0EB5FFD4F958F80931E0284
:100E2000FF91EF919F918F912F910F900FBE0F9097
:100E30001F9018958081F4CF1F920F920FB60F92DA
:100E400011242F933F934F935F936F937F938F93CF
:100E50009F93AF93BF93EF93FF938091B900887FE7
:100E6000803609F44AC0F0F5883209F4A7C018F5B5
:100E7000803109F49BC0B8F4882309F4F9C08830A4
:100E800009F494C0FF91EF91BF91AF919F918F9121
:100E90007F916F915F914F913F912F910F900FBE76
:100EA0000F901F901895883109F488C0803251F74F
:100EB0008093D20114C0803409F49DC040F4803383
:100EC000B9F38833F9F68093D20185ECB0C0803550
:100ED00009F485C0883509F496C0883499F60E94D3
:100EE0004206D0CF883909F48CC038F5883729F00C
:100EF00050F4883611F0803729F683E08093D401CE
:100F000010928D0157C0883809F47BC0803919F0E0
:100F1000803809F0B7CF80918D01803208F071C020
:100F2000E0918D0181E08E0F80938D018091BB0057
:100F3000F0E0E359FE4F80833DC0803B39F0E0F4A0
:100F4000803A09F479C0883A09F09CCF84E0809314
:100F5000D40110926C0110926B01E091A402F09107
:100F6000A502099580916B0181110FC081E08093EA
:100F70006B0110924B0109C0803C09F4A6CF883C5C
:100F800009F4A3CF883B09F07DCFE0916C0181E0AB
:100F90008E0F80936C01F0E0E55BFE4F80818093C3
:100FA000BB0090916C0180916B0129C08091AF01D1
:100FB0008093BB0085EC8093BC0064CF9091D101FD
:100FC0008091D001981758F5E091D10181E08E0F02
:100FD0008093D101F0E0E055FE4F8081E9CFE091B0
:100FE000D10181E08E0F8093D1018091BB00F0E0B0
:100FF000E055FE4F80839091D1018091D0019817E8
:10100000C8F285E8D8CFE091D10181E08E0F8093BE
:10101000D1018091BB00F0E0E055FE4F80838091CC
:10102000D30181115CCF81E08093AE0184EA80938B
:10103000BC001092D40126CF85EC8093BC001092A6
:10104000D40180918D01803230F4E0918D01F0E087
:10105000E359FE4F108260918D0170E0E091A20291
:10106000F091A3028DE691E0099510928D010ACFCF
:101070001092D20134CFCF93DF93EC01862F688397
:10108000798361E00E940E0161E08881DF91CF9158
:101090000C94E000E5E0F2E01382128288EE93E027
:1010A000A0E0B0E084839583A683B78324E031E099
:1010B0003183208325EC30E03587248724EC30E031
:1010C0003787268720EC30E0318B208B21EC30E015
:1010D000338B228B22EC30E0358B248B26EC30E0F6
:1010E000378B268B118E128E138E148EEAEAF2E065
:1010F0001382128284839583A683B78386E191E06D
:10110000918380831092A9021092A8021092A702E4
:101110001092A6020E9454048CE890E09093A502DD
:101120008093A4028DE890E09093A3028093A202A2
:1011300088E48093BC0266E070E08AEB92E00E9453
:101140003B0867E070E088EB92E00E943B0868E0B3
:1011500070E086EB92E00C943B08CF93DF93CDB721
:10116000DEB762970FB6F894DEBF0FBECDBF78949E
:1011700084B5826084BD84B5816084BD85B582609C
:1011800085BD85B5816085BD80916E00816080934D
:101190006E001092810080918100826080938100B6
:1011A00080918100816080938100809180008160C6
:1011B000809380008091B10084608093B100809121
:1011C000B00081608093B00080917A008460809349
:1011D0007A0080917A00826080937A0080917A0010
:1011E000816080937A0080917A00806880937A0091
:1011F0001092C100E0911502F091160282E0808306
:10120000E0911102F09112021082E0911302F0912C
:1012100014028FEC808310921D02E0911902F0916C
:101220001A0286E08083E0911702F0911802808113
:1012300080618083E0911702F091180280818860BC
:101240008083E0911702F09118028081806880838A
:10125000E0911702F091180280818F7D808380E3F6
:1012600091E00E94150586E391E00E94150589E34F
:1012700091E00E94150586E391E00E94150568EE55
:1012800073E080E090E00E94640185EE282E95ECEA
:10129000392E8AEB92E00E949503BC01990F880BCE
:1012A000990B0E94AB0B4B015C018AEB92E00E9410
:1012B000FE02BC01990F880B990B0E94AB0B6B834C
:1012C0007C838D839E8388EB92E00E949503BC0112
:1012D000990F880B990B0E94AB0B6F8378878987D6
:1012E0009A8788EB92E00E94FE02BC01990F880B5E
:1012F000990B0E94AB0B6B877C878D879E8786EB53
:1013000092E00E949503BC01990F880B990B0E94F3
:10131000AB0B6F87788B898B9A8B86EB92E00E9460
:10132000FE02BC01990F880B990B0E94AB0B6B015D
:101330007C011091BC0281E08093FB011093FA01C3
:101340001092A7021092A60260E08AEA92E00E9440
:10135000E3040091A602013208F091C00E943F010F
:101360002B013C018091D401811164C092E09093E3
:10137000D40181E08093D3019FEF9093D20110922A
:10138000D1010093D001AAEDB1E0E0EBF1E080E003
:101390000813EAC01092AF018091AF01110F182B12
:1013A0001093AF018091AE01813009F0E1C010923D
:1013B000AE010E943F012B013C018091AF0180935F
:1013C000BB008091D6019091D701A091D801B09136
:1013D000D901892B8A2B8B2B99F00E943F01009118
:1013E000D6011091D7012091D8013091D90164190B
:1013F0007509860997090617170728073907D8F1CD
:101400008091BC0083FDD9CF3092BC000E943F0187
:101410002B013C018091D401823009F4ACC0809151
:10142000D2018F3F61F18091D201803241F18091F0
:10143000D20125C08091D6019091D701A091D80109
:10144000B091D901892B8A2B8B2B09F48BCF0E9469
:101450003F012091D6013091D7014091D8015091A0
:10146000D9016419750986099709261737074807AE
:10147000590708F077CF8091D5010E94720410922D
:10148000A7021092A6021092FB011091BC020E94CA
:101490003F012B013C018091D40181118EC081E07C
:1014A0008093D4018093D3019FEF9093D201109247
:1014B000D1018093D0018093AF018091AF01110FD2
:1014C000182B1093AF018091AE01813009F003C158
:1014D0001092AE010E943F012B013C018091AF01AF
:1014E0008093BB008091D6019091D701A091D80143
:1014F000B091D901892B8A2B8B2BA1F00E943F013F
:101500000091D6011091D7012091D8013091D901D5
:1015100064197509860997090617170728073907F7
:1015200008F46CC08091BC0083FDD8CF3092BC0021
:101530000E943F012B013C018091D401813009F4CC
:10154000CDC08091D10112E0823010F41091D10110
:10155000A0EBB1E0EEE8F1E080E0811709F453C0C0
:101560009D9191938F5FF9CF9D9191938F5F10CF54
:101570002092BC004BCF8091D6019091D701A091D1
:10158000D801B091D901892B8A2B8B2B09F442CF3A
:101590000E943F010091D6011091D7012091D801FE
:1015A0003091D9016419750986099709061717073B
:1015B0002807390708F02ECF5ECF8091D601909191
:1015C000D701A091D801B091D901892B8A2B8B2BFF
:1015D00009F461CF0E943F012091D6013091D701DB
:1015E0004091D8015091D90164197509860997096C
:1015F000261737074807590708F04DCF8091D501C6
:101600000E94720410E01092A9021093A802111116
:1016100087C00FEF1FEF42E0C501B4010E946605CD
:1016200087E491E00E94150542E06B817C818D8109
:101630009E810E94660587E491E00E94150542E0C4
:101640006F81788589859A850E94660587E491E097
:101650000E94150542E06B857C858D859E850E94E4
:10166000660587E491E00E94150542E06F85788960
:1016700089899A890E94660587E491E00E94150590
:1016800042E0C701B6010E94660587E491E00E942E
:101690001505B801110F880B990B0E94AB0B20E0C8
:1016A00030E040E85BE30E940A0C42E00E946605DD
:1016B00068EE73E080E090E00E94640180E090E0DA
:1016C000892B09F4E6CD0E940702882309F4E1CDB5
:1016D0000E940000DECD2092BC002ACF8091D6016E
:1016E0009091D701A091D801B091D901892B8A2B73
:1016F0008B2B09F421CF0E943F010091D60110915C
:10170000D7012091D8013091D90164197509860952
:101710009709061717072807390708F00DCF6ECF6E
:101720008AEA92E00E94A304082F8091A902181768
:1017300009F46FCF8AEA92E00E94A3040A83198217
:1017400009811A81082B67CF0E94E60B08F481E01B
:101750000895E89409C097FB3EF4909580957095A4
:1017600061957F4F8F4F9F4F9923A9F0F92F96E9ED
:10177000BB279395F695879577956795B795F11162
:10178000F8CFFAF4BB0F11F460FF1BC06F5F7F4FFF
:101790008F4F9F4F16C0882311F096E911C0772311
:1017A00021F09EE8872F762F05C0662371F096E81A
:1017B000862F70E060E02AF09A95660F771F881FE9
:1017C000DAF7880F9695879597F90895990F00088D
:1017D000550FAA0BE0E8FEEF16161706E807F90703
:1017E000C0F012161306E407F50798F0621B730B9E
:1017F000840B950B39F40A2661F0232B242B252B1F
:1018000021F408950A2609F4A140A6958FEF811DC1
:10181000811D08950E941D0C0C948E0C0E94800C5A
:1018200038F00E94870C20F0952311F00C94770C6F
:101830000C947D0C11240C94C20C0E949F0C70F32C
:10184000959FC1F3950F50E0551F629FF001729F65
:10185000BB27F00DB11D639FAA27F00DB11DAA1F74
:10186000649F6627B00DA11D661F829F2227B00DC1
:10187000A11D621F739FB00DA11D621F839FA00D4C
:10188000611D221F749F3327A00D611D231F849F9C
:10189000600D211D822F762F6A2F11249F575040F3
:1018A0009AF0F1F088234AF0EE0FFF1FBB1F661F6E
:1018B000771F881F91505040A9F79E3F510580F037
:1018C0000C94770C0C94C20C5F3FE4F3983ED4F375
:1018D000869577956795B795F795E7959F5FC1F7DB
:1018E000FE2B880F911D9695879597F9089597F986
:1018F0009F6780E870E060E008959FEF80EC0895B6
:1019000000240A94161617061806090608950024DE
:101910000A9412161306140605060895092E039458
:10192000000C11F4882352F0BB0F40F4BF2B11F4CC
:1019300060FF04C06F5F7F4F8F4F9F4F089557FD2B
:101940009058440F551F59F05F3F71F04795880F2D
:1019500097FB991F61F09F3F79F0879508951216C4
:1019600013061406551FF2CF4695F1DF08C0161670
:1019700017061806991FF1CF869571056105089421
:101980000895E894BB2766277727CB0197F9089538
:101990005058BB27AA270E94E00C0C948E0C0E9482
:1019A000800C38F00E94870C20F039F49F3F19F426
:1019B00026F40C947D0C0EF4E095E7FB0C94770C68
:1019C000E92F0E949F0C58F3BA1762077307840728
:1019D000950720F079F4A6F50C94C10C0EF4E0956F
:1019E0000B2EBA2FA02D0B01B90190010C01CA01D9
:1019F000A0011124FF27591B99F0593F50F4503E84
:101A000068F11A16F040A22F232F342F4427585F75
:101A1000F3CF469537952795A795F0405395C9F78D
:101A20007EF41F16BA0B620B730B840BBAF0915045
:101A3000A1F0FF0FBB1F661F771F881FC2F70EC0E4
:101A4000BA0F621F731F841F48F4879577956795B7
:101A5000B795F7959E3F08F0B0CF9395880F08F0A3
:101A60009927EE0F9795879508950E94490D0C943C
:101A70008E0C0E94870C58F00E94800C40F029F4D4
:101A80005F3F29F00C94770C51110C94C20C0C940C
:101A90007D0C0E949F0C68F39923B1F3552391F3B9
:101AA000951B550BBB27AA2762177307840738F0CD
:101AB0009F5F5F4F220F331F441FAA1FA9F335D02A
:101AC0000E2E3AF0E0E832D091505040E695001CDE
:101AD000CAF72BD0FE2F29D0660F771F881FBB1F98
:101AE000261737074807AB07B0E809F0BB0B802D76
:101AF000BF01FF2793585F4F3AF09E3F510578F0A2
:101B00000C94770C0C94C20C5F3FE4F3983ED4F332
:101B1000869577956795B795F7959F5FC9F7880F75
:101B2000911D9695879597F90895E1E0660F771FC7
:101B3000881FBB1F621773078407BA0720F0621B58
:101B4000730B840BBA0BEE1F88F7E09508950E9483
:101B5000A70C88F09F5798F0B92F9927B751B0F08C
:101B6000E1F0660F771F881F991F1AF0BA95C9F721
:101B700014C0B13091F00E94C10CB1E008950C94F2
:101B8000C10C672F782F8827B85F39F0B93FCCF3A5
:101B9000869577956795B395D9F73EF4909580959E
:101BA000709561957F4F8F4F9F4F08950E94E60B70
:101BB00008F48FEF08950E94E60B880B990B0895A7
:101BC000A1E21A2EAA1BBB1BFD010DC0AA1FBB1F41
:101BD000EE1FFF1FA217B307E407F50720F0A21BB3
:101BE000B30BE40BF50B661F771F881F991F1A9420
:101BF00069F760957095809590959B01AC01BD014A
:101C0000CF010895EE0FFF1F0590F491E02D099488
:041C1000F894FFCF76
:101C1400000000003D029D01CA018A02FB01D901B6
:101C2400ED0100000000E304B604120593049601DC
:101C3400A30494046E616E00696E66006F7666009C
:101C44005374617274000D0A0041637475616C20F1
:0A1C540074656D703A20002C00004A
:00000001FF
